:020000040800F2
:10000000981C0020B5010008BB3300084F2E0008E3
:10001000B9330008111700085D480008000000000F
:100020000000000000000000000000005D35000836
:100030001317000800000000BD330008B93800089D
:10004000CF010008CF010008CF010008CF01000850
:10005000CF010008CF010008CF010008CF01000840
:10006000CF010008CF010008CF010008CF01000830
:10007000CF010008CF010008CF010008CF01000820
:10008000CF010008CF010008CF010008CF01000810
:10009000CF010008CF010008CF010008CF01000800
:1000A000CF010008CF010008CF010008CF010008F0
:1000B000CF010008CF010008CF010008CF010008E0
:1000C000CF010008CF010008CF010008CF010008D0
:1000D000CF010008CF010008CF010008CF010008C0
:1000E000CF010008CF010008CF01000800F002F89E
:1000F00000F051F80AA090E8000C82448344AAF171
:100100000107DA4501D100F046F8AFF2090EBAE86E
:100110000F0013F0010F18BFFB1A43F0010318473B
:100120006C9000008C900000103A24BF78C878C111
:10013000FAD8520724BF30C830C144BF04680C60ED
:10014000704700000023002400250026103A28BF35
:1001500078C1FBD8520728BF30C148BF0B60704739
:10016000662906F02884642900F0E480732900F0F1
:100170001285002070471FB59DE8030000F018FAB3
:1001800000F024FD04000020002105F08DFFE06058
:100190001FBD10B510BD00F036FE1146FFF7EBFF96
:1001A00005F0E2FB00F054FE03B4FFF7F2FF03BCDE
:1001B00004F080FB0948804709480047FEE7FEE756
:1001C000FEE7FEE7FEE7FEE7FEE7FEE7FEE7FEE707
:1001D00004480549054A064B7047000009390008E4
:1001E000ED000008980A0020981C0020980C0020C0
:1001F000980C0020704770B5064600F0BDF9056800
:1002000006F10B0020F00704B4429CBF002070BD33
:100210002B466A68BAB11068A04210D304F10801F5
:1002200088423CBF5068586007D35168101941603C
:100230001168091B016058601460101D70BD1346E1
:100240005268002AE7D12146284600F09DF900288F
:10025000DED170BD0FB4044910B503AA029800F0B6
:100260009FFC10BC5DF814FB380000200FB41CB5D7
:10027000074B06AA7B4469460090059800F061FC94
:100280000020694600F070FC1CBC5DF814FB000007
:10029000F108000070B5044685690068C10601D503
:1002A000302600E02026C00707D070BDD4E9012128
:1002B00030469047206A401C20626D1EF6D570BD06
:1002C00070B5044685690078C00707D170BDD4E9D0
:1002D000012120209047206A401C20626D1EF6D527
:1002E00070BD70B50C460546012A05D028788006F9
:1002F00000D5EA69002302E0012305E05B1C93427C
:1003000002D2E05C0028F9D1A869E618C01AA861F9
:10031000286A184428622846FFF7BCFF04E0D5E9A4
:10032000012114F8010B9047B442F8D32846FFF797
:10033000C7FF70BD2DE9F0410646002410687529FD
:10034000314616A510D0AFF30080002802DA4042F3
:1003500013A507E031688A0701D512A502E0490715
:1003600004D511A5012401E0AFF3008000210A2289
:1003700006F1240709E0B0FBF2FCB0FBF2F302FB4C
:100380001C00303078541846491C0028F3D123460D
:100390002A463046BDE8F04100F067B90000000091
:1003A0002D0000002B000000200000002DE9F05F70
:1003B000894604464FF0000ADFF824B1FB44C0F838
:1003C00020A02046E168884700287DD0252806D057
:1003D000D4E901219047206A401C2062F1E7002502
:1003E0005F462046E16888472028064607DB312E15
:1003F00005D2B81910F8200C08B10543F1E7A80799
:1004000001D525F00405C4F81CA00027C4F818A0E5
:100410002A2E09D0304604F046FA38B304EB870898
:10042000303EC8F8186019E059F8041B204604EB68
:1004300087029161E1688847012F064618D1E0697B
:10044000002820DA25F020051DE0D8F8180000EB80
:10045000800006EB40003038C8F818002046E168FC
:100460008847064604F01FFA0028EED1012F0AD073
:100470002E2E08D12046E16888477F1C0646022FB1
:1004800045F02005C4DBA069002803DA404245F0AE
:100490000105A061E80701D025F01005A6B1A6F17D
:1004A0004100192802D8203645F400654A463146F5
:1004B000204625604D46FFF753FE60B1012807D066
:1004C000ED1D25F0070000E007E000F1080978E7DE
:1004D00005F1040975E730467AE7206ABDE8F09F28
:1004E000AA8C000010B5431C02E010F8011B71B18A
:1004F0008107FAD14FF0013202C88C1A8C4314EAFA
:10050000C211F9D0C01A0A0603D0C01E10BDC01A0D
:1005100010BD0A0401D0801E10BD0902FCD0401E8F
:1005200010BD4FF0000200B51346944696462039A0
:1005300022BFA0E80C50A0E80C50B1F12001BFF49C
:10054000F7AF090728BFA0E80C5048BF0CC05DF802
:1005500004EB890028BF40F8042B08BF704748BF50
:1005600020F8022B11F0804F18BF00F8012B7047C4
:100570007047704770477047004870473C0A00203A
:10058000704770477047704738B504460A460020E8
:100590006946AFF30080002808BF38BD02460099C5
:1005A000204600F017FB012038BD012000F024BCDC
:1005B000F8B5AFF30080054600200C46102000BFC0
:1005C0000646A819A0420DD9324669460020AFF36D
:1005D0000080070008BF00F00FFC0098A04218BF81
:1005E0000546C419FFF7C8FF05600746F01D20F057
:1005F00007004619284600F00AF8B44208BFF8BDC3
:10060000A21B31463868BDE8F84000F0E3BA00218B
:100610000160C0E9011070471020704770B50446B2
:10062000051FFFF7A9FF0068002C14BF446870BDC8
:10063000002C18BFAC423CBF20466468F8D3016868
:100640000A18AA4218BF456003D12A68054611441A
:10065000016028684119A1421CBF6C6070BD6168CF
:10066000696021680844286070BD2DE9F0470D4697
:1006700099469246044600F124080168880604D58C
:10068000E06921F01001216000E00120A84201DDB5
:10069000471B00E00027A1697A1902EB0900081A3C
:1006A000A0612078C00602D42046FFF7F3FD0026A3
:1006B00008E0D4E901211AF806009047206A401C9E
:1006C000761C20624E45F4DB2078C0060AD5204611
:1006D000FFF7E0FD06E0D4E9012130209047206AD1
:1006E000401C2062381EA7F10107F4DC07E0D4E9C2
:1006F000012118F805009047206A401C2062281E3E
:10070000A5F10105F3DC2046FFF7DAFD20780006AD
:1007100002D50220BDE8F0870120FBE770472DE9F4
:10072000FF4F0C461E464FF0FF378BB0D2E9000159
:10073000DDF860800A908A46C1F30A5505B93D4646
:10074000002108464FF00000BAF1000F00F440000D
:1007500005DA00EB80004FF4400101EA50004FEA57
:100760009059B9F1010F00DDB9460A9850EA4A00E4
:100770000ED044F61050A5F2FF3545432F14B8F1C2
:10078000000F1ED07542291E1EDDC9F100021CE0BB
:10079000B8F1010F4FF0000001D0302103E0F24327
:1007A00005E02154401CB042FBDB30460022002112
:1007B00021540B99C1F80880C1E900200FB0BDE8B1
:1007C000F08FBD1B6D1CDEE74A4600DA694206A8C1
:1007D00000F0A0FA06AB93E8070003AB83E807003C
:1007E00050460A9900F0C3FB8DE80700A0F50050C1
:1007F0001F3800900398002D09DD42F21F014A4680
:10080000084403A90390684600F022FE08E0A0F522
:1008100000504A461F3803A90390684600F02CFE9A
:100820008DE807000004000C03D04FF0FF304108B2
:1008300000E01046B8F1000F03D0002200921546E8
:100840001EE0751E05D400F0DFF9303262556D1ED2
:10085000F9D5B3460122084302D000227F1C04E0F0
:100860002078302801D100227F1E002A099786D0E7
:100870001DE0112D07DA00F0C7F9303262556D1C0A
:1008800050EA0102F5D1084302D00098C8B10EE049
:100890000021681E05E0235C625C63542254401E04
:1008A000491C8142F7DBAB46A81B401E0990002083
:1008B00004F80B000B98099AC0F80880C0E9002BD7
:1008C0007CE711264FF0000859E72DE9F04F8846E4
:1008D0000446D21D22F0070191B0D1E90001CDE913
:1008E0000A0103F0BCFF02460B98C00F01D02D2077
:1008F00007E02068810701D52B2002E0202101EAD2
:10090000C000032A099001D0072A05DB03464146AF
:10091000204600F0BFF90BE12078800601D5E069A0
:1009200000E00620B8F1650F814606D0B8F1660FE9
:1009300018D0B8F1670F70D131E00020B9F1110F74
:10094000009001DB112301E009F101030AAA01A9CA
:100950000CA8FFF7E4FEDDE90C70002609F10105A3
:10096000834647E001204B4600904FF000470AAA1B
:1009700001A90CA8FFF7D3FEDDE90DB00C995D4687
:10098000002610B909F101000D18B9EB050003D4D8
:10099000C0F1FF3609F10105A5EB09002BE0B9F123
:1009A000010F01DA4FF001090020B9F1110F009099
:1009B000484601DD112300E003460AAA01A90CA85C
:1009C000FFF7ADFEDDE90C704D460026834620782A
:1009D00000070AD4AB4500DA5D4601A8012D04DD0D
:1009E000411911F8011C302907D04F4502DA17F1DF
:1009F000040F04DA012082460FE06D1EEEE7002F9F
:100A000002DCED1B3E4403E0781CA84200DD7D1CA7
:100A1000B81B00F1010A4FF000472078000703D40B
:100A2000AA4501DB4FF0FF3A0021B7F1004F0DF16D
:100A300043088DF8431024D002202B23002F01DA25
:100A40007F422D230A21021EA0F1010000DC5FB1CC
:100A500097FBF1FC97FBF1F201FB1C7C17460CF1B4
:100A6000300C08F801CDEEE7A8F1010003702188F1
:100A7000090501D5452100E06521A0F1010800F834
:100A8000011C09980FA9A1EB0807FF1D00B1012067
:100A9000411901EBEA70A1693844081A401EA061AF
:100AA0002078C00602D42046FFF7F4FB099828B14D
:100AB000D4E901219047206A401C20622078C006BA
:100AC00022D52046FFF7E6FB1EE0002E04DBB345EF
:100AD00002DD01A8805D00E03020D4E901219047CB
:100AE000206A401C2062761CAAF101005FEA000A1D
:100AF0000AD100F06BF8C0680168405CD4E90121BC
:100B00009047206A401C2062281EA5F10105DCDC0C
:100B100007E0D4E9012118F8010B9047206A401C36
:100B20002062381EA7F10107F3DC2046FFF7C8FB5F
:100B3000032011B043E6000001694A1C02610878F5
:100B4000704700B58FB0CDE901310021059105490D
:100B50007944CDE9031011466846FFF727FC0FB032
:100B600000BD0000E5FFFFFF0A6802F8010B0A6004
:100B7000704710B5436913B1AFF3008001E0FFF790
:100B8000B0FB012010BD127800F124010A70002290
:100B90004A700122EDE711684FF0FF32E9E70000EB
:100BA000074B70B50D467B44FFF7CBFF0446284644
:100BB00000F01EF910B14FF0FF3070BD204670BD3F
:100BC000AB4B000000487047340A002000487047D3
:100BD000540A0020034640688C46002818BF88420B
:100BE0003CBF03464068F8D318681844884207D0D1
:100BF0000CF1030020F00700001D411A521A0146B3
:100C0000081D0A60FFF70ABD30B5B0F10A024FEACD
:100C1000900E71F100034EEA817EB0EB0E0061EBA5
:100C200091014FEA101E4EEA017E10EB0E0041EBDF
:100C300011114FEA102E4EEA016E10EB0E0041EB3F
:100C400011214FEA104E4EEA014E10EB0E0041EB1F
:100C50001141401841F100014FEAD00040EA4170D3
:100C60004FEAD10110EB80054FEA810444EA907409
:100C700044EB01046D1944EB0404521BA3414FF0F3
:100C8000000348BF0A3200D530BD401C41F10001CD
:100C900030BD00002DE9F0411F46044603260168DF
:100CA000072A01F4006004DB08B116A505E016A5CB
:100CB00003E008B115A500E015A521F010002060A3
:100CC000A069C01EA0610FB1401EA0612046FFF7C1
:100CD000E1FA4FB1D4E9012138469047206A401C1F
:100CE0002062C01C206206E0206AFAE7D4E90121F4
:100CF00015F8010B9047761EF8D22046FFF7E0FA70
:100D0000BDE8F0814E414E006E616E00494E4600D6
:100D1000696E66002DE9F047814616468AB0334871
:100D200078440DC88DE80D0030487844801C03AC31
:100D30000DC884E80D0041F69B300844372190FB34
:100D4000F1F290FBF1F5A5F1800501FB12041B3CCB
:100D500002D56442012000E00020DFF890A0804628
:100D60000027FA44AAF1BE0A0DE0E00709D0324696
:100D7000684607EB47010AEB810100F07DFB8DE837
:100D8000070064107F1C002CEFD1184F7F44AC3F4C
:100D900018E0E80714D007EB04100DF1180A90E8EA
:100DA0000E008AE80E00C068F04201D19819089040
:100DB000324606A903A800F05FFB03AB83E80700F7
:100DC0006D10641C002DE4D132466946B8F1000F65
:100DD00003A802D000F03CFB01E000F04DFBC9E9A4
:100DE0000001C9F808200AB0BDE8F087D4830000EC
:100DF000007B00F08000704710B500F037F8BDE8C8
:100E0000104000F02EB87546FFF7DCFEAE46050038
:100E10006946534620F00700854618B020B5FFF715
:100E2000D7F9BDE820404FF000064FF000074FF023
:100E300000084FF0000B21F00701AC46ACE8C009F8
:100E4000ACE8C009ACE8C009ACE8C0098D46704701
:100E500010B50446AFF300802046BDE81040FFF710
:100E6000A3B9002801D003F025BD704710B50128B3
:100E700005D0002103A000F061F8012010BD09A1F8
:100E8000F8E7000053494752544D454D3A204F75FD
:100E900074206F662068656170206D656D6F727972
:100EA000000000003A2048656170206D656D6F722A
:100EB0007920636F72727570746564004FF0013C45
:100EC00050F8042B51F8043B9A4221D1A2EB0C03B9
:100ED000934313EACC1317D150F8042B51F8043B79
:100EE0009A4215D1A2EB0C03934313EACC130BD116
:100EF00050F8042B51F8043B9A4209D1A2EB0C03A1
:100F0000934313EACC13DBD04FF00000704700BFCF
:100F1000D01A01BAB1FA81F101F0180122FA01F0F8
:100F2000CB40C1F12001DBB2C0B2C01A2CFA01F3F0
:100F3000D11A914311EAC311E6D1704770B5054645
:100F40000C460A2000E06D1C03F0B5FC35B1287892
:100F50000028F8D102E0641C03F0ADFC14B1207845
:100F60000028F8D1BDE870400A2003F0A4BC5FEA75
:100F7000400C08BF91F0000F4FEA8C234FEAC122CA
:100F800043EA51514FEA1C5018BF00F5F0404FEAB8
:100F9000300018BF41F000415FEA6C5C00F029802E
:100FA000BCF1FF3F08BF40F080407047130C06BF04
:100FB00012044FF0100C4FF0000C130E04BF12027D
:100FC0000CF1080C130F04BF12010CF1040C930F69
:100FD00004BF92000CF1020CD30F04BF52000CF1BD
:100FE000010C11464FF00002A0F11F00A0EB0C0015
:100FF000704711F0004F08BF704731F000413FF4D7
:10100000D5AF0B0C06BF09044FF0100C4FF0000CCD
:101010000B0E04BF09020CF1080C0B0F04BF0901F1
:101020000CF1040C8B0F04BF89000CF1020CCB0FE8
:1010300004BF49000CF1010CCCF12003A0EB0C0023
:1010400022FA03F302FA0CF241EA030100F1010073
:10105000704720F07F4C80EA030023F07F47ACEB21
:10106000070303F57C5300F0004003F1FF032DE973
:1010700080494FEA154B09B44FEA144325EA0B4E59
:1010800024EA03480FF2042606EB132749083E78AA
:101090005FEA320203FB0667C7F5000707FB06F6A7
:1010A0004FEA54374FEAD64606F1020607FB066CB4
:1010B000CCF1005C4FEA1C472CEA074C07FB06F416
:1010C0000CFB06F504EB15464FEA961634BF0020DC
:1010D0004FF000404FEAD13706FB07FC4FEA1C4CAB
:1010E0000CFB0BF7D21B03FB0CF761EB07010CFBAE
:1010F0000EF7B0EB074072EB17420CFB08F734BF5A
:10110000A2EB0742B2EB074261EB17414FEA0C44F6
:101110004FEA910706FB07FC4FEA1C4C0CFB0BF750
:10112000B0EBC74072EB573203FB0CF734BFA2EBB6
:10113000C742B2EBC74261EB57310CFB0EF7B0EB85
:10114000C70072EB57720CFB08F734BFA2EBC70263
:10115000B2EBC70261EB5771039F4FEA816141EA2D
:10116000921104EBCC044FEAD1374FEA826206FBBE
:1011700007FC42EA90124FEA80604FEA1C4C0CFBDD
:101180000BF7D21B03FB0CF761EB07010CFB0EF70F
:10119000B0EB074072EB17420CFB08F734BFA2EB31
:1011A0000742B2EB074261EB17414FEA8C554FEA19
:1011B000910704EB9C2406FB07FC4FEA1C4C0CFB3C
:1011C0000BF7B0EBC74072EB573203FB0CF734BFA1
:1011D000A2EBC742B2EBC74261EB57310CFB0EF7F3
:1011E000B0EBC70072EB57720CFB08F734BFA2EBF1
:1011F000C702B2EBC70261EB577115EB4C254FEA02
:10120000816141EA92114FEA82624FEAD13742EAA4
:10121000901206FB07FC44F100044FEA80604FEA9D
:101220001C4C0CFB0BF7D21B03FB0CF761EB07010B
:101230000CFB0EF7B0EB074072EB17420CFB08F704
:1012400034BFA2EB0742B2EB074261EB174115EB4B
:101250001C154FEA813141EA92414FEA823242EA5B
:1012600090424FEA80304FEA0C7644F1000448EA9D
:1012700003434EEA0B484FF0000EB2EB080C71EB43
:10128000030724BF624639464EEB0E0E4FF0000BAB
:101290000018524149414BEB0B0BB2EB080C71EBC0
:1012A00003077BF1000B24BF624639464EEB0E0E5E
:1012B0004FF0000B0018524149414BEB0B0BB2EBC6
:1012C000080C71EB03077BF1000B24BF6246394623
:1012D0004EEB0E0E51EA020718BF46F0010616EB60
:1012E0000E7655F1000254F1000103D5BDE88901E5
:1012F000BDE80088BDE88901BDE80048B619524143
:1013000041EB0101A3F10103704780807F7E7D7C6A
:101310007B7A7978777676757473727171706F6E87
:101320006E6D6C6C6B6A6A69686867666665646432
:10133000636362616160605F5F5E5E5D5D5C5C5BBC
:101340005B5A5A595958585757565655555554542B
:10135000535352525251515050504F4F4F4E4E4D89
:101360004D4D4C4C4C4B4B4B4A4A4A4949494848D5
:101370004847474747464646454545444444444315
:1013800043434342424242414141002B26D477002D
:1013900021D01CB54FEA370703B44FF010004FF0CF
:1013A00010014FF000000FBCBDE810400BF1010B25
:1013B000BBF1010F08BF5FEA170722BF12F101025C
:1013C00011F101014FF0004143F1000300F0004032
:1013D00043EA00007047F9D35708DAE746EA0646C1
:1013E00013F1400F4FEA16461FDD13F1200FDFBF48
:1013F00016430A46002120335B42C8D0C3F12007C0
:1014000046EA064602FA07F74FEA164646EA070694
:10141000C3F1200722FA03F201FA07F721FA03F1D8
:101420004FF0000342EA0702B1E746EA020646EA45
:1014300006464FEA164646EA0106BCBF46EA06469D
:10144000360C4FF000034FF000024FF000019EE712
:101450002DE9C048934630B491E8380007C831EA16
:10146000400C48BF34EA430C03D5FFF7F2FDFFF709
:101470008CFFF0BCBDE800882DE9C048934630B42D
:1014800091E8380007C810F0804F08BF13F0804F74
:1014900003D100F005F8FFF778FFF0BCBDE8008845
:1014A00020F07F4780EA030023F07F4C07EB0C031A
:1014B000A3F57C5300F00040A3F1FE0392F0000F6F
:1014C00000F0B38095F0000F00F077802DE901491E
:1014D0004FEA11404FEA144621EA004800FB06FC9F
:1014E00024EA064708FB06F607FB08F800FB07F7A7
:1014F00018EB06484CEB164C4FEA124B18EB07481A
:101500004FEA15464CEB174022EA0B4E0BFB06FC4C
:1015100025EA06470EFB06F607FB0EFE0BFB07F758
:101520001EEB064E4CEB164C4FF000061EEB074E22
:101530004CEB174B18EB0B0840F1000018EB0E0BAF
:1015400058EB000840F100008F1A4FF000013CBF3B
:10155000C943661B14BFB5EB040C00213CBFC94353
:10156000F61B4FEA17444EEA8E0E27EA04454FEA6F
:101570001C4704FB07622CEA074C05FB07F70CFB32
:1015800005F604FB0CFC16EB074642EB174216EB84
:101590000C4642EB1C421BEB060658EB0202414193
:1015A00046EA9E0601D5BDE80189B619524141EBD4
:1015B0000101A3F10103BDE801894FEA14454FEA97
:1015C000114724EA054621EA074C05FB07F406FB10
:1015D00007F70CFB06F105FB0CFC11EB074144EB94
:1015E00017444FEA124711EB0C4144EB1C4422EA2A
:1015F000074C05FB07F206FB07F70CFB06F605FB9D
:101600000CFC16EB074642EB174216EB0C4642EB7E
:101610001C456A1854F1000148BF7047B619524181
:1016200041EB0101A3F10103704795F0000F37D0A2
:101630004FEA11424FEA144721EA024624EA074CD6
:1016400002FB07F106FB07F70CFB06F402FB0CFCA0
:1016500014EB074441EB17414FEA154714EB0C44D8
:1016600041EB1C4125EA074C02FB07F506FB07F797
:101670000CFB06F602FB0CFC16EB074645EB174588
:1016800016EB0C4645EB1C42121951F1000148BF04
:101690007047B619524141EB0101A3F101037047B4
:1016A0004FEA14454FEA114724EA054621EA074C60
:1016B00005FB07F106FB07F70CFB06F24FF00006EF
:1016C00005FB0CFC12EB074241EB174112EB0C42FD
:1016D00051EB1C4148BF7047921841EB0101A3F147
:1016E0000103704700B587B06021CDE900100020EC
:1016F0000290049004226946044801F0F3F90421A1
:10170000024801F093FA07B000BD000088090020EC
:10171000FEE7704770B5154601F00FFC0C484079A4
:1017200001F04AFF0B4C00224021204600F01BFC38
:1017300001225102084800F016FC284601F078FF0B
:101740002046BDE870400122402100F00CBC0000A2
:101750002E000020000C01400008014070470022CC
:10176000AFF3008030B50E4B054601205C7A012CAA
:1017700015D8587A00241C54587A03EB8000456031
:101780005D7A03F108002A54587A421C5A723030AC
:1017900008703A2048702F208870CC70002030BD2F
:1017A000280A00202DE9F05F81462D481E46DDF80D
:1017B0002CB0038888464B4502D34188414504D26A
:1017C000BDE8F05F27A0FEF745BDF088410700D0D7
:1017D000012101EBD0003189203A484380B24243D5
:1017E00030684FF0800A8718002534E0002429E093
:1017F000ABF57F41FF3907D0387804F007022AFAA9
:1018000002F1084207D10EE0397804F007022AFA03
:1018100002F0014210D008EB050081B209EB040090
:1018200080B20A9A06E008EB050081B209EB0400D9
:1018300080B25A4600F080FAE043400700D17F1C96
:10184000641CA4B2F088A042D2D8B079400700D07E
:101850007F1C6D1CADB23089A842C7D8BDE8F09F8F
:101860002E0000204552523A64726177206368610D
:101870007220706F696E74206F7574206F662073AC
:10188000637265656E2061726561210D0A0000005A
:101890002DE9FF4F804669481546C2F101090288CB
:1018A000002485B00F46424502D34088B8427CD21E
:1018B00009B063A0BDE8F04FFEF7CCBC139810B19F
:1018C00001284BD0A2E008EB040007EB050A0290C8
:1018D0001FFA8AF180B2129B089A00F015F908EB02
:1018E00005003E190190B1B280B2129B089A00F037
:1018F0000BF9A8EB040000901FFA8AF180B2129B4A
:10190000089A00F001F9A8EB050BB1B21FFA8BF0B1
:10191000129B089A00F0F8F80098A7EB050A1FFA46
:101920008AF180B2129B089A00F0EEF83E1BB1B229
:101930001FFA8BF0129B089A00F0E6F802981FFA43
:101940008AF180B2129B089A00F0DEF80198B1B2D9
:1019500080B2129B089A00F0D7F857E0264653E071
:1019600008EB0400039007EB060B1FFA8BF180B223
:10197000129B089A00F0C8F808EB060007EB040A6F
:1019800002901FFA8AF180B2129B089A00F0BCF80C
:10199000A8EB040001901FFA8BF180B2129B089A09
:1019A00000F0B2F81FFA8AF100E040E0A8EB060070
:1019B000009080B2129B089A00F0A6F80198A7EB5D
:1019C000060B1FFA8BF180B2129B089A00F09CF86C
:1019D0000098A7EB040A1FFA8AF180B2129B089ABA
:1019E00000F092F803981FFA8BF180B2129B089ACC
:1019F00000F08AF802981FFA8AF180B2129B089AC6
:101A000000F082F8761CB6B2AE42A9D9B9F1000F47
:101A100004DA09EB440000F1030906E0611B09EB5D
:101A200041006D1E00F10509ADB2641CA4B2A542CF
:101A30003FF644AF09B0BDE8F08F00002E00002053
:101A40004552523A636972636C652063656E7465D2
:101A50007220706F696E74206F7574206F662073CA
:101A6000637265656E2061726561210D0A00000078
:101A70002DE9FC5F9946154682460E46824201D307
:101A80002A1A00E0421B9046894502D3A9EB0102C5
:101A900001E0A1EB09029346A8EB0B044FF0FF32E3
:101AA000AA4501D9104600E0012001904E4500D81A
:101AB0000122002700920E987F1C012804D10320E8
:101AC00097FBF0F100FB117028B9DDE90C233146DA
:101AD000504600F019F8AA4501D14E4512D06000D9
:101AE000CBF10001884206DB019AA4EB0B040AEB60
:101AF00002011FFA81FA4045DDDC0098444430447D
:101B000086B2D8E7BDE8FC9F2DE9FF5F8046174805
:101B10001F4689460288424525D342884A4522D33A
:101B2000002582461DE008EB05060024A6F1010B06
:101B300013E000BFBAF800108E420CD8BAF80200C9
:101B400009EB0401814206D8491E89B21FFA8BF0C5
:101B5000029A00F0F1F8641CA4B2BC42EAD36D1CF6
:101B6000ADB2BD42DFD3BDE8FF9F00002E000020D4
:101B70002DE9FE4F81462B4892460C46DDE90D517A
:101B800002880C9E1F464A4506D34088A04203D3D4
:101B9000524501D3B84204D2BDE8FE4F22A0FEF761
:101BA00059BB002001292BD0002927D1CDE90065A0
:101BB000804623460290524619464846FFF758FF92
:101BC000CDE900654A463B4621461046CDF80880DF
:101BD000FFF74EFFCDE900653B46524619464846A1
:101BE000CDF80880FFF744FFCDE9006552463B463B
:101BF00021461046CDF80880FFF73AFFBDE8FE8F7A
:101C000080460BE0CDE9006523465246194648461A
:101C1000CDF80880FFF72CFF641CA4B2BC42F1D3BE
:101C2000ECE700002E0000204552523A6C696E65C8
:101C300020706F696E74206F7574206F66207363F7
:101C40007265656E2061726561210D0A00000000F9
:101C50002DE9FC5F1E4617468846814604460D4620
:101C6000DFF850A0DDF834B01EE0F188BAF800C00B
:101C70000B19634503D933894C462B449DB23389F4
:101C8000BAF802002B44834202D90819454684B2AF
:101C90000C99CDE9001B3346294620467F1CFFF7EF
:101CA00081FDF088204484B23A78002ADDD1BDE875
:101CB000FC9F00002E0000202DE9F0471546DDF8BE
:101CC00020A01C460E468046A84201D990460546F3
:101CD000A64201D91E460C4623462A4631464046B6
:101CE00001F03DFC1148407901F066FCDFF84090BE
:101CF00000224021484600F036F9012251020D48E9
:101D000000F031F90027A5EB0805A01B454304E0CE
:101D1000504601F08DFC7F1CBFB2BD42F8DC484646
:101D2000BDE8F0470122402100F01DB92E0000203F
:101D3000000C014000080140064B30B41C8884426E
:101D400005D35B888B4202D330BCFFF7E3BC30BCC9
:101D5000704700002E00002070B5044600F008F91E
:101D60000546601C02D004480078044400F000F9E5
:101D7000401BA042FAD370BD580000202DE9F84F57
:101D8000DFF8B891002409F1040A0AF1040B234694
:101D90000F270BF1040EC9E00125A5402A40AA42F5
:101DA0007DD1674ED1F804C0ACEB0608B44532D003
:101DB00014DCBCF1030F3AD009DCBCF1000F2AD0CF
:101DC000BCF1010F1CD0BCF1020F31D11DE0BCF100
:101DD000110F17D0BCF1120F2AD119E0B8F5881FE6
:101DE00019D006DCB8F5803F15D0B8F5801F1FD19B
:101DF00011E0B8F5001F0ED0B8F5041F18D10AE0A5
:101E0000CB6815E0CB681B1D12E0CB6808330FE0F0
:101E1000CB680C330CE08B682BB1012B4FF008031F
:101E200003D0456104E0042302E0056100E00023E3
:101E3000FF2A01D8064601E000F104064FEA8405B6
:101E400001D9A5F12005D6F8008007FA05FC28EA9B
:101E50000C0803FA05F548EA0508C6F800804D6845
:101E6000ED0062D5374DAE6946F00106AE61AD6951
:101E700024F0030605F001050095334D06EB050C33
:101E8000DCF80850A607360F07FA06F825EA080519
:101E9000DFF8B880404503D14FF0000817E044E078
:101EA000DFF8AC80404502D14FF001080FE0DFF8C9
:101EB000A480404502D14FF0020808E0DFF8988086
:101EC000404502D14FF0030801E04FF0040808FA42
:101ED00006F848EA0508CCF808804D68D9F8006093
:101EE000ED034D4601D5164300E096432E604D6844
:101EF000DAF80060AD03554601D5164300E096437D
:101F00002E604D68DBF80060ED025D4601D516439A
:101F100000E096432E604D68DEF80060AD02754625
:101F200001D5164300E096432E60641C0D682A46D6
:101F3000E5407FF431AFBDE8F88F000000040140B8
:101F40000000111000100240000001400008014094
:101F5000000C01400010014000140140806808405E
:101F600000D0012070470AB1016170470904FBE706
:101F700001488068704700005800002002488168CE
:101F8000027811448160704758000020074810B55E
:101F9000016841F010010160032000F067F80020A3
:101FA00000F006F800F024F8002010BD00200240E8
:101FB00070B50D4D04464FF47A712878B1FBF0F0FE
:101FC0000A490968B1FBF0F000F014FD48B9102C83
:101FD00007D200222146501E00F028F800206C6035
:101FE00070BD012070BD000058000020640000207A
:101FF0000C4808B5816941F001018161816901F0F6
:1020000001010091C16941F08051C161C06900F0D6
:10201000805000900448416821F0E06141F0007177
:10202000416008BD0010024000000140F0B40E4BBA
:102030001B680C46C3F30223C3F10705042D00D926
:102040000425191D072901D2002300E0DB1E01260B
:1020500006FA05F1491E214099409E40761E164021
:102060003143F0BC02F00FBC0CED00E0064900F07B
:10207000070208684FF6FF03184040EA0220034AAF
:1020800010430860704700000CED00E00000FA0506
:102090002DE9F0470F46050061D0434E306800F04F
:1020A0000700B84209D2306820F00700384330609A
:1020B000306800F00700B84251D128683B4C8107D6
:1020C00012D5400703D5606840F4E060606028786E
:1020D000000703D5606840F4605060606068A968DC
:1020E00020F0F000084360602878C00728D06868B6
:1020F000012810D02168022810D0890700292EDA83
:10210000616821F0030101436160FFF731FF804600
:1021100041F288390DE021688903EFE78901EDE795
:10212000FFF726FFA0EB0801494502D90320BDE8CF
:10213000F0876068696800F00C00B0EB810FEFD1A8
:10214000306800F00700B8420BD9306820F0070073
:1021500038433060306800F00700B84201D00120F9
:10216000E5E72878400705D56068E96820F4E06075
:10217000084360602878000706D56068296920F464
:10218000605040EAC100606000F038F86168084AB9
:10219000C1F30311515CC840064908600648006855
:1021A000FFF706FF0020C2E70020024000100240B7
:1021B00052900008640000205C000020044805499B
:1021C00000684968044AC1F30221515CC840704765
:1021D0006400002000100240629000080448054995
:1021E00000684968044AC1F3C221515CC840704785
:1021F00064000020001002406290000812A185B027
:102200000FC98DE80F0014A0144A006804905168AB
:10221000134801F00C03042B10D0082B0ED1C1F38E
:102220008343C9031DF803000AD5516804AAC1F30A
:102230004041515C0A4A5043B0FBF1F005B0704791
:1022400008494843FAE700000203040506070809A5
:102250000A0B0C0D0E0F10100102000000100240BE
:1022600000127A0000093D002DE9F84F040070D0FB
:102270002078C04DC00749D06868C0F381000128AC
:1022800007D06868C0F38100022809D16868C003DC
:1022900006D52868800339D560680028E7D035E086
:1022A0006068B0F5803F0BD010B1B0F5A02F11D011
:1022B000286820F480302860286820F4802002E01C
:1022C000286840F480302860606890B1FFF750FEC5
:1022D00006460AE0286840F480202860F0E700BF46
:1022E000FFF746FE801B642873D828688003F7D563
:1022F0000CE0FFF73DFE064605E000BFFFF738FEA5
:10230000801B6428F0D828688003F7D420789A4E80
:1023100080074FF001094FF0000839D5686810F0C8
:102320000C0F07D06868C0F38100022809D16868E3
:10233000C00306D42868800714D52069012808D175
:1023400010E02069B0B1C6F80090FFF711FE074613
:1023500005E00AE1FFF70CFEC01B0228C4D828687C
:102360008007F7D52868616920F0F80040EAC100CD
:1023700028600DE0C6F80080FFF7FAFD074604E08C
:10238000FFF7F6FDC01B022823D828688007F7D482
:10239000207800072CD57948A169D9B1C0F8009000
:1023A000FFF7E6FD074604E0FFF7E2FDC01B022849
:1023B0000FD8686A8007F7D571484FF4FA51006862
:1023C000B0FBF1F0009000BF0098411E0091FAD2DE
:1023D0000EE080E0C0F80080FFF7CAFD074604E089
:1023E000FFF7C6FDC01B022875D8686A8007F7D4BE
:1023F0002078400760D5E8690027C00008D4E86964
:1024000040F08050E861E869012700F080500090BA
:102410005C480168C90513D40168834641F48071A2
:102420000160FFF7A5FD824606E000BFFFF7A0FDB3
:10243000A0EB0A0064284ED8DBF80000C005F5D5F3
:10244000E06801280AD008B1052813D0286A20F0D6
:1024500001002862286A20F0040002E0286A40F0A7
:1024600001002862E06841F2883B98B1FFF780FDE7
:1024700082460BE0286A40F004002862EEE700BFC5
:10248000FFF776FDA0EB0A0159455AD8286A800764
:10249000F6D50CE0FFF76CFD824605E0FFF768FD1E
:1024A000A0EB0A0159454CD8286A8007F6D41FB121
:1024B000E86920F08050E861E06988B36968C1F399
:1024C0008101022944D00228C6F8608004D0FFF7B9
:1024D0004FFD044638E034E0FFF74AFD074604E0CC
:1024E000FFF746FDC01B02282BD828688001F7D4CF
:1024F000206AB0F5803F05D16868A16820F40030FB
:1025000008436860D4E908010843696821F474113C
:1025100008436860C6F86090FFF72AFD044606E0AD
:1025200025E000BFFFF724FD001B022809D828681A
:102530008001F7D51BE000BFFFF71AFD001B022842
:1025400002D90320BDE8F88F28688001F4D40EE09A
:102550000128F7D06868226A00F48031914204D1E2
:10256000616A00F47010884201D00120EAE700207F
:10257000E8E70000001002400000424280044242AE
:10258000640000200070004070B5040009D0606A4B
:10259000002540B125616561A56294F8510040B104
:1025A0000CE0012070BD6068B0F5827FF4D0E56179
:1025B000F2E784F85050204600F040F8022084F8FA
:1025C00051002068016821F040010160A088218944
:1025D00000F4827001F404410843A18901F4006110
:1025E0000843217C01F002010843217D01F0010133
:1025F0000843218B01F400710843217F01F0380169
:10260000084394F8201001F080010843218D01F463
:102610000051084321680860A069042101EA1040C4
:10262000216848602068C16921F40061C161656565
:10263000012084F85100002070BD000030B585B045
:102640000024009401940294039400681449884281
:1026500023D11448816941F480518161816901F479
:1026600080510491816941F00401816180690E4DBE
:1026700000F004000490A0200090022001900320AC
:10268000039069462846FFF779FB4020CDE9000416
:10269000694628460294FFF771FB05B030BD000083
:1026A0000030014000100240000801402DE9F84FC1
:1026B000044690F8500000271D461646894601281A
:1026C0000DD04FF0010B84F850B0FFF751FC80465D
:1026D00094F85100BA46012804D0022793E0022062
:1026E000BDE8F88FB9F1000F73D0002E71D0032030
:1026F00084F85100C4F854A0C4F83090A686E68649
:10270000C4F838A0A4F83CA0A4F83EA0C4F844A0A3
:10271000C4F840A0A068B0F5004F09D12068016856
:1027200021F0400101602068016841F480410160AE
:1027300020680168490603D4016841F04001016046
:10274000E068B0F5006F606803D030B3012E24D08C
:1027500041E008B1012E1CD1206B21680088C860BF
:1027600006E020688168890709D5216B0988C16066
:10277000206B801C2063E08E401EE08609E0FFF79E
:10278000F7FBA0EB0800A84202D3681C01D031E09F
:102790007DB3E08E0028E4D120E0206B2168007832
:1027A000087306E020688168890709D5216B0978DC
:1027B0000173206B401C2063E08E401EE0860AE01F
:1027C000FFF7D6FBA0EB0800A84203D3681C02D099
:1027D00010E017E06DB1E08E0028E3D142462946B3
:1027E000204600F023FE08B120206065A06818B1E3
:1027F00006E0FFE7032706E02068C16880680090D4
:10280000606D00B1012784F851B084F850A03846BB
:1028100066E72DE9F84F044690F8500000270A9E1D
:102820001D4692468B464FF0010901280ED001202B
:1028300084F85000FFF79CFB804694F851006168D3
:1028400001280CD0B1F5827F07D102E00220BDE85B
:10285000F88FA16809B9042801D00227C2E0BBF1B2
:10286000000F27D0BAF1000F24D01DB394F8510007
:10287000042802D0052084F8510000206065C4F8C7
:1028800038A0E587A587C4F830B0E586A586206422
:10289000606420680168490603D4016841F0400182
:1028A0000160E068B0F5006F606805D0E8B3012D05
:1028B00046D07FE0012795E008B1012D39D1206B8A
:1028C00021680088C860206B801C2063E08E401E59
:1028D000E0862EE02068816889070FD5E18E69B116
:1028E000B9F1010F0AD1216B0988C160206B801CEE
:1028F0002063E08E401EE0864FF00009206881686A
:10290000C9070CD0E18F51B1C068A16B0880A06BE2
:10291000801CA063E08F401EE0874FF00109FFF7A5
:1029200027FBA0EB0800B04200E009E001D3701CD7
:1029300050D1E08E0028CDD1E08F0028CAD13FE0F1
:10294000206B216800780873206B401C2063E08EA8
:10295000401EE0862EE02068816889070FD5E18E51
:1029600069B1B9F1010F0AD1216B09780173206BAC
:10297000401C2063E08E401EE0864FF00009206876
:102980008168C9070CD0E18F51B1C068A16B087094
:10299000A06B401CA063E08F401EE0874FF0010950
:1029A000FFF7E6FAA0EB0800B04202D3701C01D09A
:1029B00010E07EB1E08E0028CDD1E08F0028CAD192
:1029C00042463146204600F031FD28B10127202043
:1029D000606507E0032705E0A06818B92068C168B2
:1029E00080680090012084F85100002084F8500095
:1029F00038462CE710B5401EB0F1807F01D301208E
:102A000010BD4FF0E02460610F21601701F03BFF23
:102A10000020A06107202061002010BD70B590F853
:102A20003C20012A26D0012480F83C40022280F874
:102A30003D2003685A689D6822F070060A68324398
:102A40005A600D4B02689A4208D0B2F1804F05D00F
:102A50000A4B9A4202D00A4B9A4204D1496825F0A7
:102A600080031943916080F83D40002180F83C10BC
:102A7000084670BD022070BD002C014000040040DB
:102A80000008004000B585B000210091019102913D
:102A9000039100680F4988421AD10F48816941F0BB
:102AA000100181618069694600F010000490802067
:102AB00000900220019003900848FFF75FF9084852
:102AC000416821F4406141F0E06141F440614160BE
:102AD00005B000BD0004004000100240001001409D
:102AE0000000014070B5044690F83C000D460128F6
:102AF0000AD0012084F83C0042B1042A18D0082AE8
:102B00002AD00C2A4DD139E0022070BD206800F097
:102B100041FF2068816941F0080181612068816975
:102B200021F004018161206881692A69114311E063
:102B3000206800F057FF2068816941F400618161DD
:102B40002068816921F480618161206881692A6936
:102B500041EA0221816124E0206800F06FFF2068D3
:102B6000C16941F00801C1612068C16921F0040117
:102B7000C1612068C1692A69114311E0206800F031
:102B800089FF2068C16941F40061C1612068C169A1
:102B900021F48061C1612068C1692A6941EA02218A
:102BA000C161002084F83C0070BD10B5040003D062
:102BB00094F83D0010B107E0012010BD002084F81A
:102BC0003C00204600F01EF8022084F83D00211D44
:102BD000206800F09BFE012084F8460084F83E0047
:102BE00084F83F0084F8400084F8410084F84200F3
:102BF00084F8430084F8440084F8450084F83D00DC
:102C0000002010BD08B500680649884208D1064872
:102C1000C16941F00201C161C06900F00200009089
:102C200008BD0000000400400010024010B504463A
:102C3000022249B104290ED0082913D094F841008A
:102C4000012816D0012010BD94F83E000128F9D1CA
:102C500084F83E200FE094F83F000128F2D184F878
:102C60003F2008E094F840000128EBD184F8402090
:102C700001E084F841200122206800F07DFE0F4928
:102C80002068884203D1426C42F4004242642068CA
:102C9000884208D0B0F1804F05D00949884202D05F
:102CA0000849884204D1816801F00701062903D050
:102CB000016841F001010160002010BD002C0140BD
:102CC000000400400008004070B5040004D094F8EF
:102CD0003900002510B106E0012070BD84F838509D
:102CE000204600F023F8242084F839002068C168C9
:102CF00021F40051C160204601F00EFB20680169FB
:102D000021F4904101612068416921F02A0141616B
:102D10002068C16841F40051C160E563202084F857
:102D2000390084F83A00002070BD000030B585B04D
:102D3000002400940194029403940068144988428A
:102D400023D11448C16941F40031C161C16901F462
:102D500000310491816941F00401816180690E4D67
:102D600000F0040004900420009002200190032051
:102D7000039069462846FFF701F80820CDE90004D2
:102D8000694628460294FEF7F9FF05B030BD000001
:102D90000044004000100240000801402DE9F843C3
:102DA000044690F839001F4616460D4620284CD19F
:102DB000C5B1BEB194F83800012846D0012084F88E
:102DC00038004FF00008C4F83C80212084F8390016
:102DD000FFF7CEF8A6848146E684A068B0F5805F50
:102DE00003D004E00120BDE8F883206928B12E4615
:102DF0005FF0000584F838800EE00026FAE78021B5
:102E0000204601F0E5FAA0B9AEB116F8010B216831
:102E10004860E08C401EE084E08C4B464FF000029E
:102E200000970028EBD14FF04001204601F0D0FA86
:102E300030B10320D7E735F8020BC0F30800E6E70E
:102E4000202084F839000020CDE70220CBE7FEE700
:102E50002DE9F04107460021084600F06EF81248BF
:102E6000407900F0A9FB114D002240212846FFF7D0
:102E70007AF8012251020E48FFF775F8082000F099
:102E8000E5FA00244FF41636384600F0D1FB641CF6
:102E9000B442F9D3012240212846FFF764F8BDE887
:102EA000F041182000F0D2BA2E000020000C0140A2
:102EB00000080140F0B40F492C242A254FF4A072D9
:102EC0004FF4F0732B2678B101280DD002280BD0D7
:102ED000032809D001270F710B804A804C718D7136
:102EE000CE71F0BC00F008B800270F710A804B804B
:102EF000F4E700002E00002010B50021082812D2AF
:102F0000DFE800F0110406080A0C0E1080210AE028
:102F1000402108E0C02106E0202104E0602102E019
:102F2000A02100E0E02141F00804362000F044FB3D
:102F30002046BDE8104000F05DBB0B46024600F0A5
:102F40000EBB000070B50122714D140221462846C7
:102F5000FFF709F80120FEF7FFFE00222146284670
:102F6000FFF701F85020FEF7F7FE01222146284620
:102F7000FEF7F9FF0A20FEF7EFFE7820FEF7ECFEE1
:102F8000112000F019FB7820FEF7E6FEF02000F09B
:102F900013FBC32000F02EFBF02000F00DFB962069
:102FA00000F028FB362000F007FB482000F022FB51
:102FB000E82000F001FB402000F01CFB822000F024
:102FC00019FB072000F016FB182000F013FB272048
:102FD00000F010FB0A2000F00DFBB62000F00AFB09
:102FE000332000F007FBC22000F0E6FAA72000F033
:102FF00001FBC52000F0E0FA252000F0FBFAB72025
:1030000000F0DAFA462000F0F5FAE02000F0D4FAF9
:10301000F02000F0EFFA072000F0ECFA112000F0A9
:10302000E9FA102000F0E6FA112000F0E3FA0B2094
:1030300000F0E0FA3C2000F0DDFA432000F0DAFA7C
:103040004B2000F0D7FA0B2000F0D4FA172000F044
:10305000D1FA162000F0CEFA1B2000F0CBFA1D208A
:1030600000F0C8FAE12000F0A7FAF02000F0C2FA60
:10307000072000F0BFFA112000F0BCFA0F2000F08A
:10308000B9FA102000F0B6FA1A2000F0B3FA39208D
:1030900000F0B0FA552000F0ADFA4A2000F0AAFA8C
:1030A0000B2000F0A7FA162000F0A4FA152000F07B
:1030B000A1FA1A2000F09EFA1D2000F09BFAF020E1
:1030C00000F07AFA3C2000F095FAF02000F074FA53
:1030D000692000F08FFA3A2000F06EFA552000F0D7
:1030E00089FA7820FEF738FE292000F065FA0720DB
:1030F000FFF7E0FE4FF44870FEF7F4FA4FF6FF706A
:10310000FFF7A6FEBDE8704002A0FDF7A3B80000DF
:10311000000801404C43442046696E6973682049A9
:103120006E69740D0A0000007CB52948002686846B
:103130004FF6FF70FFF78CFE1F2428235A220A2126
:1031400005200094FEF7B8FDE502CDE90054214BBF
:1031500021A20F210520FEF77BFD5A231A463C21B0
:1031600005200094FEF7A8FDCDE90054194B1CA2E0
:1031700041210520FEF76CFD8D2350227221052090
:103180000095FEF799FD4FF4FC600090B7235022A4
:103190009C210520FEF790FDE1235022C621052049
:1031A0000094FEF789FD40F20B135022F021052018
:1031B0000096FEF781FD4FF6E070009040F2351367
:1031C00050224FF48D710520FEF776FD7CBD000086
:1031D000080900202000002043414C494200000023
:1031E000434C45415200000010B504490448FEF725
:1031F000B6FA0249491E087010BD000051000020B7
:103200003C0000202DE9F04186B000252A480095B9
:10321000019502950395816941F0040181618169FD
:1032200001F004010491816941F008018161816923
:1032300001F008010491816941F010018161806908
:10324000DFF8788000F01000049001224FF48A61CA
:103250004046FEF788FE1A4F4FF440760122314671
:103260003846FEF780FE38150124CDE9000402201F
:10327000CDE9024069464046FEF780FDCDE9006495
:103280000326CDE9024669463846FEF777FD282039
:10329000CDE90005694602944046FEF76FFD5020D7
:1032A000CDE90004CDE9024669464046FEF766FDD9
:1032B00006B0BDE8F081000000100240000C0140A3
:1032C00000080140104810B50E4901604FF48271AA
:1032D000416000218160C1604FF400720161C0E96A
:1032E00005121822C0E90721416281620A21C162E8
:1032F000FFF74AF9002803D0BDE81040FEF72EBAC8
:1033000010BD0000003001403009002010B58AB027
:10331000002407941C2168460894FDF702F9174819
:103320001549016040F27F21C0E9011440F2E73104
:10333000C0E903148461FFF738FC08B1FEF70EFA08
:10334000079407A90D480894FFF768FB08B1FEF73A
:1033500005FA6020CDE9000402940422694607487A
:103360000494FFF7BFFB08B1FEF7F8F90348FFF735
:1033700089FB0AB010BD000000040040880900204D
:103380000C4810B50A4901604FF4E1314160002159
:1033900081600C22C160C0E904128161C161FFF744
:1033A00093FC002803D0BDE81040FEF7D7B910BD4C
:1033B00000440040D0090020FEE77047704700003D
:1033C00070B5002422460CA10C4801F00BFE20B180
:1033D000BDE870400AA0FCF73DBF0EA0FCF73AFF25
:1033E000064D503D0D20FCF706FF45F82400641CF7
:1033F000E4B2142CF6D370BD2F000000C4060020E8
:103400006661746673206E6F74206D6F756E74657F
:10341000640D0A006661746673206D6F756E7420AA
:1034200073756363657373210D0A000038B50B462D
:10343000009204460022802100F034F8002804D0D5
:10344000606D40F020006065032038BD064910B56E
:10345000C8610846FFF798F8002803D0BDE810407F
:10346000FEF77CB910BD00003009002010B50446FD
:10347000FEF77EFD01460248C0E9011410BD0000C0
:103480000800002010B5FEF773FD05494A688968F9
:10349000801A884201D2012010BD002010BD00001A
:1034A000080000202DE9F8431E4691468846044650
:1034B000089DFEF75DFD401B351AFEF759FD0746D6
:1034C00025480068C0F3CB30684338E0701C37D023
:1034D000FEF74EFDC01BA84203D215B1009860B3A1
:1034E0002CE02068416821F0E00141606068B0F59F
:1034F000827F0BD1A068B0F5004F02D0B0F5806F8D
:1035000004D12068016821F040010160A06AB0F593
:10351000005F09D12068016821F400510160206832
:10352000016841F400510160012084F8510000203D
:1035300084F850000320BDE8F8830025401E009069
:103540002068816838EA010004D000214945BDD1D6
:103550000020F0E70121F9E76400002070472DE921
:10356000F04107461D4614460E462A2000F024F876
:10357000380A00F03FF8F8B200F03CF8641EC4F3DB
:10358000072000F037F8E0B200F034F82B2000F00C
:1035900013F8300A00F02EF8F0B200F02BF86D1E90
:1035A000C5F3072000F026F8E8B200F023F8BDE8E4
:1035B000F0412C20AFF3008031B50B4C00224021AC
:1035C0002046FEF7D0FC002261150848FEF7CBFC30
:1035D000FF23012269460648FFF768F801224021CF
:1035E0002046FEF7C0FC38BD000C01400008014039
:1035F0003009002031B50B4C002240212046FEF757
:10360000B2FC012251020848FEF7ADFCFF23012263
:1036100069460648FFF74AF8012240212046FEF796
:10362000A2FC38BD000C0140000801403009002018
:1036300038B50446000A8DF80000FF2301226946D0
:103640000548FFF733F88DF80040FF230122694653
:103650000148FFF72BF838BD3009002010B50146AE
:1036600000240122044801F0EBFC00B102240248CE
:1036700001F0A4FC204610BD480600202DE9F041D1
:103680000F460446014600261A4801F0A3FD68BB18
:103690002046FCF727FF174D0446183D15491548ED
:1036A000183901F071FE08BB687AF8B12E28F5D000
:1036B000287AC006F2D4641C2819407A2E28FAD140
:1036C000142E11D22819817A42290DD1C17A4D299F
:1036D0000AD1007B502807D1064A57F826000F3A36
:1036E00005A1FCF7C3FD761C0024D7E73046BDE8F2
:1036F000F081000028060020252D31312E31317354
:10370000000000002DE9F04F90468BB08A468346BA
:1037100001224146684601F093FC4B4B1E224B4967
:10372000684601F098FD494841898289878B41EAC2
:103730000246418A828A41EA0244C18A028B684673
:1037400041EA024501F03AFC182F06D040A0FCF7F0
:1037500081FD01200BB0BDE8F08FB5F5A07F02D14F
:10376000B4F5F07F04D044A0FCF774FD0220F1E72B
:103770000420FFF79FFB01224146684601F060FCF0
:10378000314B32463149684601F065FD0026DFF8CD
:10379000BC80DFF81891464D4BE028882A4B7843CF
:1037A0001F30400942002949684601F054FD28882D
:1037B000254B78431F304009420008EB4001684622
:1037C00001F049FD0AEB060081B25846FFF7B5FB50
:1037D000012251023748FEF7C6FB0022402148462D
:1037E000FEF7C1FB0820FFF731FE002414E000BF04
:1037F00004EB440081B208EB010218F80100937851
:103800005278DB08DB02920843EA421242EAD00017
:10381000FFF70EFF641CA4B22888A042E8D801225A
:1038200040214846FEF79FFB1820FFF70FFE761C4D
:10383000B6B26888B042B0D8684601F0BFFB072036
:10384000FFF738FB002085E704000020700000200F
:103850007468652062697420706978656C206F6691
:1038600020626D702066696C65206973206E6F74CC
:10387000203234210D0A000074686520686569678C
:103880006874206F72207769647468206F662062A4
:103890006D702066696C6520646F206E6F74206D9A
:1038A00061746368204C4344210D0A00000C014000
:1038B0002E00002000080140FEF760BB30B58FB03D
:1038C00028216846FCF72DFE14210AA8FCF729FEE2
:1038D00002240120049000941020059000254FF44C
:1038E0006010CDE9085007946846FEF7BDFC0AA9B0
:1038F0000F2081E831006002CDE90D0502210AA800
:10390000FEF7C6FB0FB030BD70470000F0B502688F
:10391000164B174C174D4FF08047984205D0B842D0
:1039200003D0A04201D0A84203D122F070064A6819
:103930003243984205D0B84203D0A04201D0A842F9
:1039400003D122F44074CA6822434C6922F08002F9
:10395000224302608A68C2620A688262984201D188
:103960000969016301214161F0BD0000002C0140A3
:10397000000400400008004010B501F01F030121C1
:10398000046A99408C430462016A9A4011430162BF
:1039900010BD000030B5026A22F001020262026A24
:1039A0004368846924F073050C682C4322F00205F7
:1039B0008A682A430A4DA8420BD122F00805CA683A
:1039C00023F440732A434D6922F004021D438B699E
:1039D0002B434360846149684163026230BD00004B
:1039E000002C014030B5026A22F010020262026A25
:1039F000436884690D6824F4E64444EA05248D682C
:103A000022F0200242EA05120B4DA8420ED1CD68E9
:103A100022F0800242EA05124D6923F4406343EA32
:103A200085038D6922F0400243EA85034360846187
:103A300049688163026230BD002C014030B5026AE2
:103A400022F480720262036A4268C46923F400733C
:103A500024F073050C682C438D6843EA05230C4D54
:103A6000A8420ED1CD6823F4006343EA05234D69D3
:103A700022F4405242EA05128D6923F4806342EA3F
:103A800005124260C4614968C163036230BD000031
:103A9000002C014030B5026A22F480520262046AAE
:103AA0004268C3690D6823F4E64343EA05238D6841
:103AB00024F4005444EA0534064DA84204D14D696B
:103AC00022F4804242EA85124260C361496801647F
:103AD000046230BD002C01402DE9F04F4FF6FF7B12
:103AE000002689B037465D465846FFF7B1F9B84819
:103AF0004FF47844B74B0480B74A32211E20CDE9F9
:103B00000045FEF7A5F814212246084600F0AAF960
:103B1000B24C00202075A061012000F039FA207D10
:103B20000121B1EB901F4BD120F04000207504A87B
:103B3000218820F8261000EB8600761C002761897A
:103B4000F6B24180062E3BD2DFE806F03A03101FA2
:103B50002E4A14215A46084600F084F9A0484FF432
:103B600078420088143880B2142127E09C4D5A46D0
:103B700014212888143880B200F074F968884FF452
:103B80007842143881B2142018E0954D5A4668885E
:103B9000143881B2142000F065F96888143881B2B5
:103BA0002888143880B207E05846FFF751F98C484E
:103BB00041880088490840084FF4784200F052F9E3
:103BC0000A20FEF7C9F87F1CBFB2B7F57A7FA3D9E8
:103BD00084A0FCF73FFB00F075F909B0BDE8F08F59
:103BE000BDF81400BDF81010401A00B20390BDF8E3
:103BF0001C00BDF81810401A00B20290BDF81E005B
:103C0000BDF81610401A00B20190BDF81A00BDF8B8
:103C10001210401A00B20090029802F0BFFB054655
:103C20000E46039802F0BAFB2A46334602F05EFACB
:103C300005468846009802F0B1FB06468946019881
:103C400002F0ACFB32464B4602F050FA81468A46FF
:103C5000002213462846414602F0B8FB01D288F004
:103C60000048002213464846514602F0AFFB01D2FD
:103C70008AF0004A4FF066363246644B2846414689
:103C800002F0A4FB7CD3624A624B2846414602F014
:103C90002DFC75D332465D4B4846514602F096FBEB
:103CA0006ED35B4A5B4B4846514602F01FFC67D31C
:103CB000039941F6FE7001F6FF71814260D80199C7
:103CC00001F6FF7181425BD8029901F6FF718142D2
:103CD00056D8009901F6FF71814251D80398002807
:103CE0004ED0019800284BD00298002848D0009868
:103CF000002845D03A4E30884000503802F070FD20
:103D00000746DDE90210084402F06AFD394602F078
:103D100085FCA06170884000503802F061FD0646C5
:103D2000DDE90010084402F05BFD314602F076FC4C
:103D3000E061BDF820002084BDF8220060845C466C
:103D40005846FFF785F81F20CDE90004214B32A229
:103D50006E212D20FDF77CFF4FF4FA60FDF7FCFF8C
:103D6000CDE9009A2A46434604A800F06FF940F6D0
:103D7000B830FDF7F1FF30A0FCF76CFA2DE7FFE754
:103D800000264FF4FA60FDF7E7FF15485A464188D0
:103D900000884908400800F065F814214FF4784283
:103DA000084600F05FF829A0FCF754FACDE9009A24
:103DB0002A46434604A800F049F94FF47841CDE97A
:103DC000001B044B044A32211E20FDF741FFA3E6ED
:103DD0002C00002014000020109100080809002089
:103DE0002E00002063616C696272617465206F75DA
:103DF0007474696D652C496E697420546F756368BD
:103E0000205061642E2E2E0D0A0000006666EE3FE3
:103E1000CDCCCCCCCCCCF03F546F756368205363D1
:103E20007265656E2043616C6962726174696F6E60
:103E3000204F4B210000000043616C696272617485
:103E4000696F6E206F7665720D0A000073686F7778
:103E50002063616C69627261746520696E666F0DC2
:103E60000A0000002DE9FE43164605464FF0010802
:103E70000A3082B2CDE900680027A5F10A000C469D
:103E800080B20B460297FDF7F3FD04F10A0083B2FE
:103E90001438CDE9006881B22A4610460297FDF732
:103EA000E7FD0223324621462846FDF72DFECDE9E7
:103EB00000873346062221462846FDF7E9FCBDE887
:103EC000FE8300000648054981610649C16140F250
:103ED000FF71018441840021818470471F85FBC0EC
:103EE00008090020B81E354170B505460C469020E3
:103EF00000F07EF92880D02000F07AF9208070BD93
:103F00007FB50C460546694602A8FFF7EDFF01A9FB
:103F100003A8FFF7E9FFBDF80C30BDF80820934275
:103F200003D803F13200824205D39A422ED802F11F
:103F3000320083422AD2BDF80410BDF8000081424D
:103F400003D801F13206B04205D388421ED800F1F1
:103F50003206B1421AD240F6FF76B24216D0AAB16A
:103F6000B34213D093B1B04210D078B1B1420DD06A
:103F700061B1D01840082880BDF80000BDF80410D9
:103F8000084440082080012004B070BD0020FBE7F9
:103F900070B5054620212A48FDF7E0FF294C30B1D5
:103FA000207D010640D520F08000207543E02549A2
:103FB00024480A3115B1FFF7A3FF2BE0FFF7A0FF5C
:103FC00040B3214E3088400802F022FC054620888C
:103FD000218C401A00B202F003FCA16902F01EFB22
:103FE000294602F0B9FA02F0DBFB20807088400815
:103FF00002F00EFC05466089618C401A00B202F0A6
:10400000EFFBE16902F00AFB294602F0A5FA02F093
:10401000C7FB6081207D00060DD4C020207520885C
:1040200020816089608206E00020208160824FF656
:10403000FF7020806081207D00F0800070BD000056
:10404000000C0140080900202E0000202DE9FF5F30
:1040500088B0074600244FF6FF754FF478484FF0BC
:10406000A00900BF37F82430621C36A102A8FCF773
:10407000FDF804EB8401CDE9008509EB8106334BA3
:1040800002AA31462820FDF7E3FD07EB8400621CFD
:1040900043882FA102A8FCF7E9F8CDE90085314655
:1040A0002A4B02AA8C20FDF7D3FD641CE4B2052C38
:1040B000D8D304EB8400B42101EB8003264900959A
:1040C00009EB800409882820491E8AB22146FDF7A1
:1040D000F3FD4FF0700A8DF808A078208DF80900E4
:1040E000DDE90A234FF03A0B02AE8DF80AB01BA1AE
:1040F000F01CFCF7BBF8CDE900854FF000098DF806
:104100000F9047462146114B02AA2820FDF7A0FD3B
:104110008DF808A079208DF809008DF80AB0DDE946
:1041200016230EA1F01CFCF7A1F8CDE900758DF85F
:104130000F902146054B02AA8C20FDF789FD0CB09B
:10414000BDE8F09F7825643A256400001400002043
:104150007925643A256400002E000020252E326661
:104160000000000071B583B000208DF808008DF8C4
:1041700004003020FFF76AF91B4E00221021304660
:10418000FDF7F1FEFF24012301AA03A917480094BB
:10419000FEF73FFB4FF4C871491EFDD28DF8084071
:1041A000012301AA02A911480094FEF732FB9DF8F1
:1041B00004004FF6FF7101EA0025012301AA02A9BC
:1041C0000A480094FEF725FB9DF8040001220543F0
:1041D000EC0810213046FDF7C6FE1020FFF736F937
:1041E00004B0204670BD0000000C014030090020E2
:1041F000FEB50026074635466C463846FFF7B2FF47
:1042000024F81500D020401EFDD26D1CEDB2052D06
:10421000F3D30020411C0B460BE000BF34F8102004
:1042200034F81150AA4203D924F8105024F8112070
:10423000491CC9B20529F1D3D8B20428EAD3012018
:1042400034F81010401CC0B20E440428F8D30320E8
:10425000B6FBF0F0FEBD00000226294D294C0020DF
:10426000FFF796FE207D0006F9D520882988884230
:10427000F5D261896A889142F1D2821F542A12D202
:104280000A2909D9282907D20A4601461EA0FBF7A8
:10429000E1FFFFF721FC03E03C2904D95A2902D2AF
:1042A000FEF742FFDBE74A2A24D2722904D98D297E
:1042B00002D24FF478401BE09C2904D9B72902D2DE
:1042C0004FF4FC6014E0C62903D9E12901D21F2074
:1042D0000EE0F02904D9B1F5857F01D8002007E070
:1042E000B1F58D7F06D9B1F59A7F03D84FF6E0700E
:1042F000A084B4E7A28C3346FDF706FCAFE70000CC
:104300002E000020080900204C434420783A256400
:1043100020793A25640D0A0070B5044600680169E9
:10432000E26821F44051114301612169A06808430A
:10433000616908432168CA6841F20C639A430243E9
:10434000CA6020684169A26921F44071114341614A
:104350001E492068884202D1FDF740FF01E0FDF7C9
:104360002DFF00EBC00101EB0012606864218000AA
:10437000B2FBF0F3B3FBF1F36FF018067343B2FB3B
:10438000F0F5B2FBF0F605EB8305322303EB0515E0
:10439000B5FBF1F5B6FBF1F605F0F00505EB0615FA
:1043A000B2FBF0F6B2FBF0F0B0FBF1F06FF01802E8
:1043B000504306EB800003EB0010B0FBF1F02168E6
:1043C00000F00F002844886070BD000000380140F4
:1043D0002DE9F041984617460E460446069D1DE01D
:1043E000681C1BD02DB1FDF7C3FDA0EB0800A8424F
:1043F00014D92068C16821F4D071C1602068416976
:1044000021F001014161202084F8390084F83A004C
:10441000002084F838000320BDE8F081206800689F
:1044200036EA000004D00020B842D9D00020F3E7DB
:104430000120F9E72DE9F84310B10120BDE8F88328
:10444000444D287880077CD4DFF80C814FF48071CC
:10445000D8F80000C1610A24FF2001F0EDFD641EC0
:1044600014F0FF04F8D100263146304601F0CEFCAE
:1044700001285CD14FF47A70FEF7F8FF4FF4D57144
:10448000082001F0C3FC012808D00021A92001F078
:10449000BDFC012836D80226A92435E06F46FF204E
:1044A00001F0CAFD3855641CE4B2042CF7D39DF822
:1044B000020001283BD19DF80300AA2837D1440708
:1044C000FEF7E0FF28B12146A92001F09FFC00285B
:1044D000F6D1FEF7D7FF50B300213A2001F096FC49
:1044E00028BB0024FF2001F0A7FD3855641CE4B26E
:1044F000042CF7D39DF80000400601D50C2616E0E9
:10450000042614E001263446FEF7BCFF28B1002142
:10451000204601F07BFC0028F6D1FEF7B3FF28B15E
:104520004FF40071102001F071FC00B100266E7094
:1045300000F044FB4EB1D8F800000821C161287892
:1045400000E004E020F0010000E00120287028785D
:1045500074E7000008000020300900207FB51446F1
:10456000030002D0042004B070BD6B4E3078C00749
:1045700001D00320F7E7012561B101290DD066487C
:104580000329407848D004297ED0042500F016FB8A
:104590002846E8E701F07EFCBAE00021092001F09E
:1045A00035FC0028F2D11021684601F0D1FB00282B
:1045B000ECD09DF800100120B0EB911F0CD19DF8BC
:1045C00009109DF8082001EB02229DF8071000EB6E
:1045D0000140104480021DE09DF805009DF80A107E
:1045E00000F00F0000EBD1109DF809109DF8072096
:1045F00001F0030100EB41019DF80800800900EB88
:1046000082009DF8062002F0030200EB8220401C8D
:10461000C91F3EE020607DE040074FF000011AD541
:104620008D2001F0F3FB0028B0D1FF2001F004FD44
:104630001021684601F08CFB0028A7D03025FF2010
:1046400001F0FAFC6D1E15F0FF05F8D19DF80A0087
:10465000010910201DE0092001F0D8FB002895D1A8
:104660001021684601F074FB00288FD07078800715
:1046700011D59DF80A009DF80B108006400E00EB46
:10468000D1109DF80D1000E013E0FF2202EB911114
:10469000401C8840BEE79DF80B008107C90E01EB66
:1046A00050109DF80A10401CC1F38401491C484376
:1046B000B0E710F0060FC0D06A460B211846FFF78E
:1046C0004DFF0028B0D19DF80000800904D19DF86D
:1046D0000A0040067FF55AAFD4E90014707800074D
:1046E00001D449026402202001F090FB00289BD1F4
:1046F0002146212001F08AFB002895D100212620A7
:1047000001F084FB00288FD147F2305001F081FC8A
:10471000002892D0002539E70800002070B51C461B
:104720000D4630B92CB11C480178C90703D00320CD
:1047300070BD042070BD4078000700D452024FF4D1
:104740000076012C114604D0122001F05FFB60B10D
:1047500018E0112001F05AFBC0B93146284601F09B
:10476000F7FA98B100F02AFA14E03146284601F031
:10477000EFFA18B1641E05F50075F6D100210C2082
:1047800001F044FB00F01AFA14B903E000F016FA45
:10479000012070BD002070BD0800002008B101207C
:1047A00070470148007870470800002070B51C462B
:1047B00015460E4630B92CB122490878C00703D0FF
:1047C000032070BD042070BD0878400701D5022089
:1047D00070BD4878010700D45502012C0CD010F0B0
:1047E000060F03D01946972001F010FB2946192027
:1047F00001F00CFB68B11AE02946182001F006FB15
:10480000D0B9FE21304601F027FCA8B100F0D6F95E
:1048100015E0FC21304601F01FFC18B1641E06F5BE
:104820000076F6D1FD21002001F016FC20B100F049
:10483000C5F924B1012070BD00F0C0F9FAE70020ED
:1048400070BD000008000020FFF7F4BDFFF786BE32
:10485000FFF764BFFFF7A2BFFFF7A8BFFEE749005D
:1048600050EAC12018BF04204A0D18BF40F00100D3
:1048700040F2FF72B2EB515F08BF40F00200012826
:1048800008BF052070470907090E002804DB00F166
:10489000E02080F80014704700F00F0000F1E020E5
:1048A00080F8141D704730380A2801D20120704763
:1048B000002070477047704710B50446002084F808
:1048C0000402401EC4F82C02204601F0A9F908B1E8
:1048D000032010BDB4F8FE01A0F52A41553901D0DE
:1048E000022010BD94F83600B4F8371040EA0121D8
:1048F0000848B0EB012F08D094F85210B4F85320B8
:1049000041EA0221B0EB012F01D1002010BD0120AE
:1049100010BD000000464154F0B50022164B14466D
:1049200002EB420653F826506DB10768BD420BD129
:1049300003EB860586686F68B74205D12D89C68866
:10494000B54204D000E00124521C022AE8D3022A16
:1049500001D079B904E05CB9022909D01220F0BD78
:1049600002EB420003EB80004089B0F5807F01D06C
:104970000020F0BD1020F0BD100A002030B500214D
:10498000064A0C4601EB410352F82350854201D1FF
:1049900042F82340491C0229F4D330BD100A0020FC
:1049A000426A0068490A90F80202B1FBF0F0121D59
:1049B00002CA19B1884203D3401AF8E700207047B1
:1049C000116808447047D0F81422891E921E8A424A
:1049D00001D800207047D0F8282290F8020201FB8D
:1049E000002070472DE9F0410F00054606D000F089
:1049F000BDFE02280BD20120BDE8F081D5F80C6283
:104A00001EB1D5F81402B04208D8012606E0411CB8
:104A1000F2D0D5F814128142EED83E463446D5F88D
:104A20001402641CA04202D80224022E0AD321469A
:104A3000284600F09BFE38B1411CDDD00128DBD0B8
:104A4000B442ECD10020D7E76FF0704221462846EF
:104A500001F001F930B957B122463946284601F034
:104A6000FAF820B1012812D001242046C4E7C5F885
:104A70000C42D5F81002411CF7D0401EC5F81002B8
:104A800095F8050240F0010085F80502EDE74FF0CA
:104A9000FF34EAE72DE9F04789460C6800E0641C22
:104AA00021782F29FBD05C29F9D085690B222021A0
:104AB000284601F0AEF8002001460B460826E25CCD
:104AC0005B1C202A2FD92F2A2DD05C2A2BD02E2AEE
:104AD00001D0B04208D3082E32D12E2A30D108207E
:104AE0000B268906090EEAE7802A29D220A700E0D2
:104AF0007F1C97F800C0BCF1000F02D09445F7D19D
:104B00001EE0A2F14107192F02D841F0020107E08F
:104B1000A2F16107192F03D8203A41F00101D2B266
:104B20002A54401CCBE71C44C9F80040202A01D875
:104B3000042200E0002218B12878E52803D004E020
:104B40000620BDE8F08705202870082E01D18806D0
:104B5000010E01F00300012801D142F01002C1F35F
:104B60008100012801D142F00802EA720020E8E742
:104B7000222A2B2C3A3B3C3D3E3F5B5D7C7F000074
:104B8000401E022815D20C4B00EB400203EB8201C1
:104B90004889B0F5807F05D008B1401E80B24881B9
:104BA00010B104E00020FAE7002043F822000020C2
:104BB0007047022070470000100A002010B5012243
:104BC00091020448FDF7CFF9BDE81040FF2001F045
:104BD00033BA0000000C01402DE9F041C6880446BC
:104BE000761C30040F46000C2FD0206968B33107C3
:104BF00063D1401C2061E168206831B190F8022245
:104C0000521E12EA161F05D057E0B0F80802B04253
:104C10001BD952E000F0AAFD054601281AD9681CEC
:104C200032D02068D0F81412A94240D86FB1E168A0
:104C3000FFF7D8FE05000BD0012D0BD0681C23D048
:104C4000206801F0A2F9F8B906E00420BDE8F0817F
:104C50000720FBE70220F9E74FF4007200212068EB
:104C600000F0D7FF29462068FFF7ADFE2168002736
:104C70004FF00108C1F82C020FE000BF80F8048259
:104C8000206801F082F908B10120DFE72068D0F840
:104C90002C12491C7F1CC0F82C12206890F80212BC
:104CA000B942EBD8D0F82C12C91BC0F82C12E56021
:104CB00029462068FFF787FE2061E680206806F01D
:104CC0000F0100EB411060610020BFE770B50446A2
:104CD0000D46042020E0206800F0A2FF08BB6169B7
:104CE0000A78AAB1C97AE52A01F03F010AD02E2A32
:104CF00008D00F2906D021F0200108290AD0002170
:104D0000A94210D000212046FFF766FF20B108E03D
:104D1000042006E00121F3E721690029DBD1002806
:104D200001D00021216170BD70B50446002100F062
:104D30002FF80DE02169206800F072FF50B960691A
:104D40000078E52809D040B101212046FFF744FF53
:104D50000028EFD0042807D007E02169206800F080
:104D60005FFF050003D010E0072005460DE020227C
:104D70000021606900F04DFFD4E905010B2200F02D
:104D80003FFF2168012081F80402284670BD000021
:104D900070B5C18083680D460446012B3AD0206867
:104DA000D0F81412994235D933B990F8001203297A
:104DB00006D1D0F824321BB190F80202060114E0AB
:104DC000B0F80812A94225D9D0F8240213E000BF98
:104DD00000F0CCFC0346401C1AD0022B1AD32068EA
:104DE000D0F81402984215D9AD1B2068B542194677
:104DF000EED2FFF7E8FDE36060B100EB1510206133
:104E0000206805F00F0100EB41106061002070BDCB
:104E1000012070BD022070BD084910B50B5C002256
:104E200053B901220A540A1801EB8000127A406833
:104E30000168104688470246104610BD280A002027
:104E400030B4054C231804EB80001B7A40680469D9
:104E50001846A44630BC6047280A002030B4054DEF
:104E60002C1805EB8000247A406885682046AC4603
:104E700030BC6047280A0020044A111802EB800069
:104E8000097A40684268084610470000280A002056
:104E900030B4054D2C1805EB8000247A4068C568B5
:104EA0002046AC4630BC6047280A0020F0B589B0E7
:104EB000002008901EA1684600F08CF920B10D2852
:104EC00029D01CA0FBF7C6F91F4919A0FEF7D6FB95
:104ED000054601461DA0FBF7BDF91B4E01244FF40A
:104EE0007A7700BF06EB84001DA150F8042C1F4800
:104EF000FBF7BCF908A91D48FEF7B0FB68B1012813
:104F000011D01BA0FBF7A6F9641CAC420DD83846A3
:104F1000FCF722FFE6E71EA0D4E70021134A08466B
:104F2000FEF7F0FBF0E720A0ECE709B0F0BD0000D1
:104F30002F00000053442043617264206F70656E3F
:104F4000206661696C0D0A007406002066696C6554
:104F5000736E756D626572732025640D0A00000022
:104F6000252D31312E31317300000000F40800206E
:104F7000534420436172642066696C65206E6F74CF
:104F800020737570706F727465640D0A0000000004
:104F900053442043617264206E6F7420666F726D9B
:104FA00061747465640D0A00534420436172642087
:104FB0006E6F7420666F756E640D0A0010B504463E
:104FC00000F009FA00280BD1204601F00EF8002865
:104FD00006D1A06AFFF7D4FD002801D1002121608D
:104FE00010BD00002DE9F74181B090460298009075
:104FF000684600F044FC040003D50B2004B0BDE873
:10500000F0810E4E002756F8245025B12846FFF7B0
:10501000B5FC85F800720198002801D080F8007274
:1050200046F8240002D0B8F1010F01D00020E5E7D6
:10503000002202A901A800F00BFADFE76C000020B3
:105040002DE9F7478BB006000ED04FF0000802F0B4
:105050001F0727F001020CA96846C6F8008000F07F
:10506000F7F9040004D0AFE009200EB0BDE8F087E6
:1050700008A8069068460C9900F016FB059D0400F0
:105080000BD11DB1780803D0012102E0062404E011
:1050900000216846FFF740FC044617F01C0F5FD064
:1050A0004FF0010AD4B1042C13D10020484902E08A
:1050B000401C022805D200EB400251F82220002AB1
:1050C000F6D1022804D06846FFF72EFE044600E021
:1050D0001224059D47F0080754B175E0E87A10F0F6
:1050E000110F01D007246FE0780701D508246BE089
:1050F000380743D500F09BFBA873010AE973010C44
:105100002974000E687485F80B8085F81C8085F87A
:105110001D8085F81E8085F81F802946009800F0C4
:1051200019FC81460021284600F0CCFE0099B9F117
:10513000000F81F804A21FD000984946D0F82CA295
:1051400000F02DFE04003FD10099A9F10100C1F843
:105150000C025146009800F063FD04000AD033E0D1
:1051600094BBE87AC10601D504242DE0B90701D526
:10517000C007B7D1380701D547F020070098D0F80D
:105180002C02C6E90705780801D0012100E00021C2
:10519000684600F093FBB062C0B1B77186F8078033
:1051A00047462946009800F0D5FB3061287FD5F8A6
:1051B0001D1040EA0120C6E90270B76177620098CD
:1051C0003060B0F80602B08020464EE70224FBE7CC
:1051D000100A002073B584B0050009D0002205A98B
:1051E000684600F035F904004FF0000603D02FE0C8
:1051F000092006B070BD0098286001A8A861284663
:10520000059900F051FA040012D1696931B1C87AE8
:10521000C0061CD5009800F09DFBA86000980021F6
:10522000B0F80602A8802846FFF7B2FD040002D0BD
:10523000042C0CD00CE0A86838B10021284600F0FE
:105240003DFBE86128B9122402E0EE6101E005248B
:105250002E602046CDE72DE9F84F894600219A4679
:1052600015460446196000F0C0FE002810D1E07910
:1052700000280DD1A079C00709D0D4E90210401A46
:1052800001274FF0020885427AD9054678E00720C9
:10529000BDE8F88FA168C8054FD1206890F80222B8
:1052A000521E02EA512212F0FF0610D129B1626AA1
:1052B0002AB12046FFF774FB04E0206902E061692F
:1052C00000F054FA02281FD3411C43D06061616989
:1052D0002068FFF778FBB8B130440090680A5FEAB5
:1052E000000B28D0206806EB0B0290F802128A42CD
:1052F00001D9A1EB060B90F801025B464946009AE2
:10530000FFF7ACFD30BB03E084F807800220BFE765
:10531000216891F8040258B1D1F82C220098101A93
:10532000584505D209EB40204FF4007200F068FCAC
:105330004FEA4B261AE00098A0612089C0F30800CC
:10534000C0F50076AE4200D92E46A169206800F073
:1053500067FC10B1E77101209AE721892068C1F349
:10536000080101443246484600F04AFCA068B144B6
:105370003044A060DAF800008119AD1BCAF80010B3
:10538000002D87D1002083E7FEB50E46044600F0CD
:105390002CFE002817D1BEB1C4F818D00021204639
:1053A000FFF794FC0025042813D000280BD13146C8
:1053B000204600F03EFA00212046FFF70DFC0428AD
:1053C00001D100202561FEBD00212046FFF7E0FC51
:1053D000FEBD2561EBE770B5044600F006FE00282F
:1053E00035D1A179890632D5E169206800F018FC31
:1053F00000282CD1256AE87A40F02000E872207B52
:105400002877A089000A6877E068000CA877E06830
:10541000000EE8772846216900F054FD00F007FAF5
:10542000A875010AE975010C2976000E687600203E
:10543000A874E874A07920F02000A07121680120F0
:1054400081F804022068BDE8704000F043BD70BDE3
:105450002DE9FF474FF000090746C0F800901646B7
:10546000084600F00CFA050003D50B2004B0BDE897
:10547000F0878A4850F82540A4B13C6094F80002B7
:1054800028B194F80102FFF7F7FCC1070CD084F8AB
:105490000092E8B284F80102FFF7BEFCC10708D011
:1054A0000320E3E70C20E1E70EB1400704D400201D
:1054B000DCE71EB1400701D50A20D7E700252946C1
:1054C0002046FFF7F9F9012823D100204FEA0D0704
:1054D00004EB001191F8C22101F5DF712AB10A7ABB
:1054E000D1F8091042EA012100E0002147F820101C
:1054F000401C0428ECD3002657F826502DB129462D
:105500002046FFF7D9F908B909E00220761C042EDD
:10551000F2D3032801D0E0BB01E00120A6E7B4F8F4
:105520000B00B0F5007F60D1E28A2AB994F824001C
:10553000D4F8251040EA0122C4F81822217C84F80E
:105540000312012901D002294FD1607B514384F815
:105550000202F0B1431E184247D1B4F81130A4F84A
:1055600008321E0741D1B4F813602EB994F82060B8
:10557000D4F8217046EA0726B4F80EC0BCF1000F3B
:1055800033D00CEB010707EB1317BE422DD3F61BEC
:1055900000E02AE0B6FBF0F038B3012640F6F678DA
:1055A000404500D302264FF6F678404500D3032647
:1055B000801C2F44C4F82872AC44C4F81402C4E917
:1055C000875C032E13D083B16144C4F82412022EE9
:1055D00019D000F0010100EB400001EB500000BFCA
:1055E00000F2FF10B2EB502F0FD20D203EE7002B40
:1055F000FBD194F82C10D4F82D30800041EA03211F
:10560000C4F82412ECE74000EAE74FF0FF30C4F89A
:105610001002C4F80C02802084F80502032E30D159
:10562000208E01282DD12046691C00F0F9FA40BBDC
:1056300084F80592B4F8FE01A0F52A41553920D12D
:105640002078D4F8011040EA01201549884218D189
:1056500094F8E401D4F8E51140EA012011498842A8
:105660000FD194F8E801D4F8E91140EA0120C4F818
:10567000100294F8EC01D4F8ED1140EA0120C4F8CE
:105680000C02064984F80062091F0888401C088043
:10569000A4F806022046FFF771F908E76C00002025
:1056A000525261417272416173B5044601990878A2
:1056B0002F2801D05C2801D1491C01910025A5604B
:1056C00001980078202805D200212046FFF760FBD2
:1056D00065617CBD01A92046FFF7DCF90028F8D1FF
:1056E00000212046FFF754FBF8B92169206800F03B
:1056F00097FAD0B961690A782AB1CA7A12070ED42A
:105700000A23A26903E004200FE05B1E06D311F810
:10571000015B12F8016BAD1BF7D000E02DB1002149
:105720002046FFF759FA0028DFD0A169C97A28B1CD
:105730000428CED14907CCD405207CBD4907FCD430
:105740006169C87AC006F7D5206800F003F9A06047
:10575000C0E7000013B54FF6FF7301226946024807
:10576000FDF71CFB00981CBDD00900202DE9F0417D
:105770000D46044602290DD3D4F81402A84209D9D3
:1057800094F800024FF0FF36012807D002282AD0F3
:10579000032836D001263046BDE8F081D4F8200237
:1057A00005EB550700EB5721204600F039FA002899
:1057B000F1D1C7F308007F1C14F80080D4F8200250
:1057C00000EB5721204600F02BFA0028E3D1C7F365
:1057D0000800215C48EA0120E90701D00609DAE760
:1057E000C0F30B06D7E7D4F8200200EB15212046C2
:1057F00000F016FA0028CED1E8B204EB400006888B
:10580000C9E7D4F8200200EBD511204600F008FAD1
:105810000028C0D140F2FF1000EA85002044017842
:10582000D0F8010041EA002020F07046B3E70020E4
:10583000704730B5036901F10902EBB140690023FB
:105840002E25C45C5B1C202C08D0052C00D1E5243F
:10585000092B01D102F8015B02F8014B0B2BF0D3AD
:10586000C37A0B72037FD0F81D4043EA04230B6018
:10587000038B8B80C08AC8800020107030BD10B5AB
:1058800004464FF0FF302268002A13D0114600E092
:10589000491C0B78212B0ED33A2BF9D112F8013B7E
:1058A000303B0A2B06D28A4204D1002B02D1491C7C
:1058B0001846216010BD002010BD0000F0B5034661
:1058C000234AD3F80040002000EB400552F8256041
:1058D000A64209D102EB85059E686F68B74203D1E5
:1058E0002D89DE88B54202D0401C0228ECD3022864
:1058F00018D1002002E0401C022805D200EB400530
:1059000052F82550002DF6D1022813D000EB4005A7
:1059100042F8254002EB85049E686660DB8823819F
:1059200000236381002900EB400102EB81014989DA
:1059300002D019B10020F0BD491C01E04FF4807184
:1059400000EB400302EB8302401C5181F0BD0000DC
:10595000100A00200246488B92F80022032A02D146
:10596000898A40EA014070470EB5FCF70FFBFDF74E
:10597000A5FFFDF747FCFDF7A5FCFDF701FDFDF7D1
:1059800033FCFDF7C3FC86A0FAF764FCFEF79AFA35
:10599000FDF7D8FA4FF47847002402250097CDE9A7
:1059A00001544FF4A0760A22334601211046FCF739
:1059B0005FF84FF6E030CDE900050F2233460121B4
:1059C00002941046FCF754F84FF6E07ACDF800A0A8
:1059D000CDE901541422334601211046FCF748F862
:1059E0004FF4FC68CDF80080CDE90154192233460C
:1059F00001211046FCF73CF840F2FF70CDE90005AC
:105A00001E223346012102941046FCF731F84FF074
:105A10001F09CDF80090CDE901542322334601211E
:105A20001046FCF725F848F61F00CDE900052822AE
:105A30003346012102941046FCF71AF80126CDE9FD
:105A400000460A234FF4F072194646200294FCF7F0
:105A50000FF80097CDE9015614234FF4F072194660
:105A60004620FCF705F84FF0030BCDF800A01E23ED
:105A7000CDE901B41A0119464620FBF7F9FF0420CD
:105A80004FF61F01CDE9001028234FF4F072029663
:105A900019464620FBF7ECFF0097CDE90164782317
:105AA000642250214620FCF763F8CDF80080CDE950
:105AB000016478238C2250216E20FCF759F8CDF830
:105AC0000090CDE901647823B42250219620FCF7A0
:105AD0004FF878234FF482725021DC200097FCF7B6
